:020000040000FA
:10000000010A6400030A0504400C0200010C06000A
:10001000410C270066006800FC09320C3A00FD091B
:1000200011023800FC09140AFE09100239001902F5
:100030003C007D00050C3E007F001802FE01030617
:10004000BF021F02800F37001D02800F9700430779
:100050002B0A1C029E0003062E0A2F0A3A0A640C81
:100060009A000306340A350A3A0A010C3F001F02BF
:10007000FA013A0AFB0C3C00FF0C3D001802DC01BF
:100080003E001D0203069D023F0019023C007D0058
:100090001D02800F37001F02800F97004307520A8E
:1000A0001E029C000306550A560A5D0A1A02430600
:1000B0005A0A5B0A5D0A010CBA00640C9A014307F4
:1000C000620A630A660A040C2600660A1A024307DB
:1000D0006A0A6B0A140A6600140A140A140A000A4F
:1000E000740075008D0AFE09100236001602950094
:1000F00003067B0A7C0A840AF90C96000306810A2F
:10010000820A840A16023500060C3300300C3200D5
:10011000F202880AF302880A0000010CF401FF0CC5
:10012000D4013200FE0C92000307970A980A730A62
:10013000990A150231009C0A0008040C26001A0CCA
:100140003100F80C3000F002A30AF102A30A00000B
:0E01500066000008270548023000AE0A0008CD
:0601F8009D0A700AAA0A2C
:021FFE00F9FFE9
:00000001FF
