:020000040000FA
:10000000010A6400030A010C0600410C2700FE09E6
:100010001002320074000C0AFE09100233001302B1
:100020003C007D00050C3E007F001202FE0103062D
:10003000BF021F02800F31001D02800F9100430795
:10004000230A1C029E000306260A270A320A640CB1
:10005000940003062C0A2D0A320A010C3F001F02ED
:10006000F401320AFB0C3C00FF0C3D001202DC01E3
:100070003E001D0203069D023F0013023C007D006E
:100080001D02800F31001F02800F910043074A0AB2
:100090001E029C0003064D0A4E0A550A140243062E
:1000A000520A530A550A010CB400640C9401430728
:1000B0005A0A5B0A5E0A040C26005E0A1402430711
:1000C000620A630A0C0A66000C0A0C0A0C0A000A8F
:0A00D0002705480230006C0A000802
:0201FC00680A8F
:021FFE00F9FFE9
:00000001FF
